{
  "contractName": "ScamToken",
  "abi": [
    {
      "constant": true,
      "inputs": [],
      "name": "name",
      "outputs": [
        {
          "name": "",
          "type": "string"
        }
      ],
      "payable": false,
      "stateMutability": "view",
      "type": "function"
    },
    {
      "constant": false,
      "inputs": [
        {
          "name": "_spender",
          "type": "address"
        },
        {
          "name": "_value",
          "type": "uint256"
        }
      ],
      "name": "approve",
      "outputs": [
        {
          "name": "success",
          "type": "bool"
        }
      ],
      "payable": false,
      "stateMutability": "nonpayable",
      "type": "function"
    },
    {
      "constant": true,
      "inputs": [],
      "name": "totalSupply",
      "outputs": [
        {
          "name": "",
          "type": "uint256"
        }
      ],
      "payable": false,
      "stateMutability": "view",
      "type": "function"
    },
    {
      "constant": true,
      "inputs": [],
      "name": "scamFundDeposit",
      "outputs": [
        {
          "name": "",
          "type": "address"
        }
      ],
      "payable": false,
      "stateMutability": "view",
      "type": "function"
    },
    {
      "constant": true,
      "inputs": [],
      "name": "ICOEndBlock",
      "outputs": [
        {
          "name": "",
          "type": "uint256"
        }
      ],
      "payable": false,
      "stateMutability": "view",
      "type": "function"
    },
    {
      "constant": true,
      "inputs": [],
      "name": "decimals",
      "outputs": [
        {
          "name": "",
          "type": "uint256"
        }
      ],
      "payable": false,
      "stateMutability": "view",
      "type": "function"
    },
    {
      "constant": true,
      "inputs": [],
      "name": "tokenExchangeRate",
      "outputs": [
        {
          "name": "",
          "type": "uint256"
        }
      ],
      "payable": false,
      "stateMutability": "view",
      "type": "function"
    },
    {
      "constant": false,
      "inputs": [],
      "name": "finalize",
      "outputs": [],
      "payable": false,
      "stateMutability": "nonpayable",
      "type": "function"
    },
    {
      "constant": true,
      "inputs": [],
      "name": "version",
      "outputs": [
        {
          "name": "",
          "type": "string"
        }
      ],
      "payable": false,
      "stateMutability": "view",
      "type": "function"
    },
    {
      "constant": false,
      "inputs": [],
      "name": "refund",
      "outputs": [],
      "payable": false,
      "stateMutability": "nonpayable",
      "type": "function"
    },
    {
      "constant": true,
      "inputs": [],
      "name": "tokenCreationCap",
      "outputs": [
        {
          "name": "",
          "type": "uint256"
        }
      ],
      "payable": false,
      "stateMutability": "view",
      "type": "function"
    },
    {
      "constant": true,
      "inputs": [
        {
          "name": "_address",
          "type": "address"
        }
      ],
      "name": "balanceOf",
      "outputs": [
        {
          "name": "balance",
          "type": "uint256"
        }
      ],
      "payable": false,
      "stateMutability": "view",
      "type": "function"
    },
    {
      "constant": true,
      "inputs": [],
      "name": "isFinalized",
      "outputs": [
        {
          "name": "",
          "type": "bool"
        }
      ],
      "payable": false,
      "stateMutability": "view",
      "type": "function"
    },
    {
      "constant": true,
      "inputs": [],
      "name": "symbol",
      "outputs": [
        {
          "name": "",
          "type": "string"
        }
      ],
      "payable": false,
      "stateMutability": "view",
      "type": "function"
    },
    {
      "constant": true,
      "inputs": [],
      "name": "ethFundDeposit",
      "outputs": [
        {
          "name": "",
          "type": "address"
        }
      ],
      "payable": false,
      "stateMutability": "view",
      "type": "function"
    },
    {
      "constant": false,
      "inputs": [
        {
          "name": "_to",
          "type": "address"
        },
        {
          "name": "_value",
          "type": "uint256"
        }
      ],
      "name": "transfer",
      "outputs": [
        {
          "name": "success",
          "type": "bool"
        }
      ],
      "payable": false,
      "stateMutability": "nonpayable",
      "type": "function"
    },
    {
      "constant": false,
      "inputs": [],
      "name": "createTokens",
      "outputs": [],
      "payable": true,
      "stateMutability": "payable",
      "type": "function"
    },
    {
      "constant": true,
      "inputs": [],
      "name": "scamFund",
      "outputs": [
        {
          "name": "",
          "type": "uint256"
        }
      ],
      "payable": false,
      "stateMutability": "view",
      "type": "function"
    },
    {
      "constant": true,
      "inputs": [],
      "name": "ICOStartBlock",
      "outputs": [
        {
          "name": "",
          "type": "uint256"
        }
      ],
      "payable": false,
      "stateMutability": "view",
      "type": "function"
    },
    {
      "constant": true,
      "inputs": [
        {
          "name": "_owner",
          "type": "address"
        },
        {
          "name": "_spender",
          "type": "address"
        }
      ],
      "name": "allowance",
      "outputs": [
        {
          "name": "remaining",
          "type": "uint256"
        }
      ],
      "payable": false,
      "stateMutability": "view",
      "type": "function"
    },
    {
      "inputs": [
        {
          "name": "_ethFundDeposit",
          "type": "address"
        },
        {
          "name": "_scamFundDeposit",
          "type": "address"
        },
        {
          "name": "_ICOStartBlock",
          "type": "uint256"
        },
        {
          "name": "_ICOEndBlock",
          "type": "uint256"
        }
      ],
      "payable": false,
      "stateMutability": "nonpayable",
      "type": "constructor"
    },
    {
      "anonymous": false,
      "inputs": [
        {
          "indexed": true,
          "name": "_to",
          "type": "address"
        },
        {
          "indexed": false,
          "name": "_value",
          "type": "uint256"
        }
      ],
      "name": "CreateSCAM",
      "type": "event"
    },
    {
      "anonymous": false,
      "inputs": [
        {
          "indexed": true,
          "name": "_from",
          "type": "address"
        },
        {
          "indexed": true,
          "name": "_to",
          "type": "address"
        },
        {
          "indexed": false,
          "name": "_value",
          "type": "uint256"
        }
      ],
      "name": "Transfer",
      "type": "event"
    },
    {
      "anonymous": false,
      "inputs": [
        {
          "indexed": true,
          "name": "_ownder",
          "type": "address"
        },
        {
          "indexed": true,
          "name": "_spender",
          "type": "address"
        },
        {
          "indexed": false,
          "name": "_value",
          "type": "uint256"
        }
      ],
      "name": "Approval",
      "type": "event"
    }
  ],
  "bytecode": "0x60606040526040805190810160405280600581526020017f312e302e300000000000000000000000000000000000000000000000000000008152506003908051906020019061004f929190610243565b50341561005b57600080fd5b6040516080806110f1833981016040528080519060200190919080519060200190919080519060200190919080519060200190919050506000600460006101000a81548160ff02191690831515021790555083600760006101000a81548173ffffffffffffffffffffffffffffffffffffffff021916908373ffffffffffffffffffffffffffffffffffffffff16021790555082600860006101000a81548173ffffffffffffffffffffffffffffffffffffffff021916908373ffffffffffffffffffffffffffffffffffffffff160217905550600554600581905550806006819055506012600a0a630ee6b280026000819055506012600a0a630ee6b2800260016000600860009054906101000a900473ffffffffffffffffffffffffffffffffffffffff1673ffffffffffffffffffffffffffffffffffffffff1673ffffffffffffffffffffffffffffffffffffffff16815260200190815260200160002081905550600860009054906101000a900473ffffffffffffffffffffffffffffffffffffffff1673ffffffffffffffffffffffffffffffffffffffff167f8462f706e7dd670e532166f0092e2285df815770944754cad3101679fe0e1e4a6012600a0a630ee6b280026040518082815260200191505060405180910390a2505050506102e8565b828054600181600116156101000203166002900490600052602060002090601f016020900481019282601f1061028457805160ff19168380011785556102b2565b828001600101855582156102b2579182015b828111156102b1578251825591602001919060010190610296565b5b5090506102bf91906102c3565b5090565b6102e591905b808211156102e15760008160009055506001016102c9565b5090565b90565b610dfa806102f76000396000f300606060405260043610610112576000357c0100000000000000000000000000000000000000000000000000000000900463ffffffff16806306fdde0314610117578063095ea7b3146101a557806318160ddd146101ff5780631f312a1514610228578063255f17141461027d578063313ce567146102a65780634172d080146102cf5780634bb278f3146102f857806354fd4d501461030d578063590e1ae31461039b5780636f7920fd146103b057806370a08231146103d95780638d4e40831461042657806395d89b4114610453578063a81c3bdf146104e1578063a9059cbb14610536578063b442726314610590578063c0040d2c1461059a578063d744e63e146105c3578063dd62ed3e146105ec575b600080fd5b341561012257600080fd5b61012a610658565b6040518080602001828103825283818151815260200191508051906020019080838360005b8381101561016a57808201518184015260208101905061014f565b50505050905090810190601f1680156101975780820380516001836020036101000a031916815260200191505b509250505060405180910390f35b34156101b057600080fd5b6101e5600480803573ffffffffffffffffffffffffffffffffffffffff16906020019091908035906020019091905050610691565b604051808215151515815260200191505060405180910390f35b341561020a57600080fd5b610212610783565b6040518082815260200191505060405180910390f35b341561023357600080fd5b61023b610789565b604051808273ffffffffffffffffffffffffffffffffffffffff1673ffffffffffffffffffffffffffffffffffffffff16815260200191505060405180910390f35b341561028857600080fd5b6102906107af565b6040518082815260200191505060405180910390f35b34156102b157600080fd5b6102b96107b5565b6040518082815260200191505060405180910390f35b34156102da57600080fd5b6102e26107ba565b6040518082815260200191505060405180910390f35b341561030357600080fd5b61030b6107c0565b005b341561031857600080fd5b6103206108ea565b6040518080602001828103825283818151815260200191508051906020019080838360005b83811015610360578082015181840152602081019050610345565b50505050905090810190601f16801561038d5780820380516001836020036101000a031916815260200191505b509250505060405180910390f35b34156103a657600080fd5b6103ae610988565b005b34156103bb57600080fd5b6103c361098d565b6040518082815260200191505060405180910390f35b34156103e457600080fd5b610410600480803573ffffffffffffffffffffffffffffffffffffffff1690602001909190505061099b565b6040518082815260200191505060405180910390f35b341561043157600080fd5b6104396109e4565b604051808215151515815260200191505060405180910390f35b341561045e57600080fd5b6104666109f7565b6040518080602001828103825283818151815260200191508051906020019080838360005b838110156104a657808201518184015260208101905061048b565b50505050905090810190601f1680156104d35780820380516001836020036101000a031916815260200191505b509250505060405180910390f35b34156104ec57600080fd5b6104f4610a30565b604051808273ffffffffffffffffffffffffffffffffffffffff1673ffffffffffffffffffffffffffffffffffffffff16815260200191505060405180910390f35b341561054157600080fd5b610576600480803573ffffffffffffffffffffffffffffffffffffffff16906020019091908035906020019091905050610a56565b604051808215151515815260200191505060405180910390f35b610598610bbb565b005b34156105a557600080fd5b6105ad610cda565b6040518082815260200191505060405180910390f35b34156105ce57600080fd5b6105d6610ce8565b6040518082815260200191505060405180910390f35b34156105f757600080fd5b610642600480803573ffffffffffffffffffffffffffffffffffffffff1690602001909190803573ffffffffffffffffffffffffffffffffffffffff16906020019091905050610cee565b6040518082815260200191505060405180910390f35b6040805190810160405280600a81526020017f5363616d20546f6b656e0000000000000000000000000000000000000000000081525081565b600081600260003373ffffffffffffffffffffffffffffffffffffffff1673ffffffffffffffffffffffffffffffffffffffff16815260200190815260200160002060008573ffffffffffffffffffffffffffffffffffffffff1673ffffffffffffffffffffffffffffffffffffffff168152602001908152602001600020819055508273ffffffffffffffffffffffffffffffffffffffff163373ffffffffffffffffffffffffffffffffffffffff167f8c5be1e5ebec7d5bd14f71427d1e84f3dd0314c0f7b2291e5b200ac8c7c3b925846040518082815260200191505060405180910390a36001905092915050565b60005481565b600860009054906101000a900473ffffffffffffffffffffffffffffffffffffffff1681565b60065481565b601281565b611b3981565b600460009054906101000a900460ff16806108295750600760009054906101000a900473ffffffffffffffffffffffffffffffffffffffff1673ffffffffffffffffffffffffffffffffffffffff163373ffffffffffffffffffffffffffffffffffffffff1614155b8061084e5750600654431115801561084d57506012600a0a632cb417800260005414155b5b156108e8576001600460006101000a81548160ff021916908315150217905550600760009054906101000a900473ffffffffffffffffffffffffffffffffffffffff1673ffffffffffffffffffffffffffffffffffffffff166108fc3073ffffffffffffffffffffffffffffffffffffffff16319081150290604051600060405180830381858888f1935050505015156108e757600080fd5b5b565b60038054600181600116156101000203166002900480601f0160208091040260200160405190810160405280929190818152602001828054600181600116156101000203166002900480156109805780601f1061095557610100808354040283529160200191610980565b820191906000526020600020905b81548152906001019060200180831161096357829003601f168201915b505050505081565b600080fd5b6012600a0a632cb417800281565b6000600160008373ffffffffffffffffffffffffffffffffffffffff1673ffffffffffffffffffffffffffffffffffffffff168152602001908152602001600020549050919050565b600460009054906101000a900460ff1681565b6040805190810160405280600481526020017f5343414d0000000000000000000000000000000000000000000000000000000081525081565b600760009054906101000a900473ffffffffffffffffffffffffffffffffffffffff1681565b6000808373ffffffffffffffffffffffffffffffffffffffff1614158015610a86575081610a833361099b565b10155b8015610aa35750610a968361099b565b82610aa08561099b565b01115b15610bb05781600160003373ffffffffffffffffffffffffffffffffffffffff1673ffffffffffffffffffffffffffffffffffffffff1681526020019081526020016000206000828254039250508190555081600160008573ffffffffffffffffffffffffffffffffffffffff1673ffffffffffffffffffffffffffffffffffffffff168152602001908152602001600020600082825401925050819055508273ffffffffffffffffffffffffffffffffffffffff163373ffffffffffffffffffffffffffffffffffffffff167fddf252ad1be2c89b69c2b068fc378daa952ba7f163c4a11628f55a4df523b3ef846040518082815260200191505060405180910390a360019050610bb5565b600090505b92915050565b6000806000600460009054906101000a900460ff1680610bdc575060055443105b80610be8575060065443115b80610bf35750600034145b15610bfd57600080fd5b349250610c0c83611b39610d75565b9150610c1a82600054610db0565b9050806012600a0a632cb41780021015610c3357600080fd5b8060008190555081600160003373ffffffffffffffffffffffffffffffffffffffff1673ffffffffffffffffffffffffffffffffffffffff168152602001908152602001600020600082825401925050819055503373ffffffffffffffffffffffffffffffffffffffff167f8462f706e7dd670e532166f0092e2285df815770944754cad3101679fe0e1e4a836040518082815260200191505060405180910390a2505050565b6012600a0a630ee6b2800281565b60055481565b6000600260008473ffffffffffffffffffffffffffffffffffffffff1673ffffffffffffffffffffffffffffffffffffffff16815260200190815260200160002060008373ffffffffffffffffffffffffffffffffffffffff1673ffffffffffffffffffffffffffffffffffffffff16815260200190815260200160002054905092915050565b6000806000841415610d8a5760009150610da9565b8284029050828482811515610d9b57fe5b04141515610da557fe5b8091505b5092915050565b6000808284019050838110151515610dc457fe5b80915050929150505600a165627a7a723058202fc5b97c75d5a0838e5b384e508b4f65aa194add6794b59b94ad1c85ee45f81b0029",
  "source": "pragma solidity ^0.4.18;\n\nimport \"./StandardToken.sol\";\nimport \"./SafeMath.sol\";\n\ncontract ScamToken is StandardToken {\n    // token metadata\n    string public constant name = \"Scam Token\";\n    string public constant symbol = \"SCAM\";\n    uint256 public constant decimals = 18;\n    string public version = \"1.0.0\";\n\n    // crowdsale parameters\n    bool public isFinalized;\n    uint256 public ICOStartBlock;    // beginning of ICO\n    uint256 public ICOEndBlock;      // end of ICO\n    uint256 public constant scamFund = 250000000 * 10**decimals; // 250M SCAM tokens\n    uint256 public constant tokenExchangeRate = 6969; // 6969 SCAM tokens to 1 ETH\n    uint256 public constant tokenCreationCap = 750000000 * 10**decimals; // capped at 750M tokens\n\n\n// contracts\n    address public ethFundDeposit; // deposit address for ETH\n    address public scamFundDeposit; // deposit address for SCAM\n\n    // events\n    event CreateSCAM(address indexed _to, uint256 _value);\n\n    /*\n    * Constructor Function\n    */\n\n    function ScamToken(address _ethFundDeposit, address _scamFundDeposit, uint256 _ICOStartBlock, uint256 _ICOEndBlock) {\n        isFinalized = false;\n        ethFundDeposit = _ethFundDeposit;\n        scamFundDeposit = _scamFundDeposit;\n        ICOStartBlock = ICOStartBlock;\n        ICOEndBlock = _ICOEndBlock;\n        totalSupply = scamFund;                // total number of scam tokens\n        balances[scamFundDeposit] = scamFund;  // Deposit scam token cap to admin wallet\n        CreateSCAM(scamFundDeposit, scamFund);      // logs remaining SCAM funds distributable\n    }\n\n    /**\n     * @dev Accepts ether and creates additional SCAM tokens\n     */\n    function createTokens() payable external {\n        if (isFinalized || block.number < ICOStartBlock || block.number > ICOEndBlock || msg.value == 0) throw;\n\n        uint256 amountEth = msg.value;\n\n        uint256 scamRequested = SafeMath.mul(amountEth, tokenExchangeRate);\n        uint256 checkedSupply = SafeMath.add(scamRequested, totalSupply);\n\n        if (tokenCreationCap < checkedSupply) throw;\n\n        totalSupply = checkedSupply;\n        balances[msg.sender] += scamRequested;\n        CreateSCAM(msg.sender, scamRequested);\n    }\n\n    /**\n     * @dev Ends funding period and sends ETH to wallet\n     */\n    function finalize() external {\n        // Check 1 - check that funding period has not already been isFinalized\n        // Check 2 - check that the address calling this function is our address\n        // Check 3 - check the funding period has ended\n        if (isFinalized\n        || msg.sender != ethFundDeposit\n        || (block.number <= ICOEndBlock && totalSupply != tokenCreationCap)) {\n            isFinalized = true;\n            if (!ethFundDeposit.send(this.balance)) throw; // send eth to our wallet\n        }\n    }\n\n    /**\n     * @dev allows users to \"recover ether\" XDDDDD\n     */\n    function refund() external {\n        throw;\n    }\n\n}\n\n/*\ninterface tokenRecipient {\n    function receiveApproval(address _from, uint256 _value, address _token, bytes _extraData) public;\n}\n\ncontract ScamTokenERC20 {\n    string public name;\n    string public symbol;\n    uint8 public decimals = 18; // don't change\n    uint256 public totalSupply;\n\n    // Array with all balances\n    mapping (address => uint256) public balanceOf;\n    mapping (address => mapping (address => uint256)) public allowance;\n\n    // public event on blockchain that will notify clients\n    event Transfer(address indexed from, address indexed to, uint256 value);\n\n    // notifies clients about amount burnt\n    event Burn(address indexed from, uint256 value);\n\n    function ScamTokenERC20(uint256 initialSupply, string tokenName, string tokenSymbol) public {\n        totalSupply = initialSupply*10**uint256(decimals); // Update total supply with decimal amount\n        balanceOf[msg.sender] = totalSupply;\n        name = tokenName;\n        symbol = tokenSymbol;\n    }\n\n    *//**\n    * Internal transfer, only can be called by this contract\n    *//*\n\n    function _transfer(address _from, address _to, uint _value) internal {\n        // Prevent transfer to 0x0 address. Use burn() instead\n        require(_to != 0x0);\n        // check if sender has enough coins\n        require(_value <= balanceOf[_from]);\n        // Check for overflows\n        require(balanceOf[_to] + _value > balanceOf[_to]);\n        // Save this for an assertion in the future\n        uint previousBalances = balanceOf[_from] + balanceOf[_to];\n        // update sender balanceOf\n        balanceOf[_from] -= _value;\n        // update receiver balanceOf\n        balanceOf[_to] += _value;\n        Transfer(_from, _to, _value);\n        // Assert should not fail, used to find bugs in code\n        assert(balanceOf[_from] + balanceOf[_to] == previousBalances);\n    }\n\n    *//**\n    * Transfer tokens to specified address from your account\n    *\n    * @param _to Address to send scamcoins to\n    * @param _value amount sending\n    *//*\n    function transfer(address _to, uint256 _value) public {\n        _transfer(msg.sender, _to, _value);\n    }\n\n    *//**\n    * Transfer coins between addresses\n    *//*\n\n    function transferFrom(address _from, address _to, uint256 _value) public returns (bool success) {\n        require(_value <= allowance[_from][msg.sender]);\n        allowance[_from][msg.sender] -= _value;\n        _transfer(_from, _to, _value);\n        return true;\n    }\n\n    *//**\n    * Set allowance for other address\n    * allows _spender to send no more than specified allowance _value\n    *\n    * @param _spender address authorized to spend\n    * @param _value value allowed to send\n    *//*\n\n    function approve(address _spender, uint256 _value) public returns (bool success) {\n        allowance[msg.sender][_spender] = _value;\n        return true;\n    }\n\n    *//**\n    * set allowance for other address and notify\n    *//*\n\n    function approveAndCall(address _spender, uint256 _value, bytes _extraData) public returns (bool success) {\n        tokenRecipient spender = tokenRecipient(_spender);\n        if (approve(_spender, _value)) {\n            spender.receiveApproval(msg.sender, _value, this, _extraData);\n            return true;\n        }\n        return false;\n    }\n    *//**\n      * Irreversibly removes specified amount of tokens from system\n    *//*\n\n    function burn(uint256 _value) public returns (bool success) {\n        require(balanceOf[msg.sender] >= _value);\n        balanceOf[msg.sender] -= _value;\n        totalSupply -= _value;\n        Burn(msg.sender, _value);\n        return true;\n    }\n\n    function burnFrom(address _from, uint256 _value) public returns (bool success) {\n        require(balanceOf[_from] >= _value);\n        require(_value <= allowance[_from][msg.sender]);\n        balanceOf[_from] -= _value;\n        allowance[_from][msg.sender] -= _value;\n        totalSupply -= _value;\n        Burn(_from, _value);\n        return true;\n    }\n}\n*/",
  "sourcePath": "/Users/jamesnghiem/Dropbox/scamcoin2.0/contracts/ScamToken.sol",
  "compiler": {
    "name": "solc",
    "version": "0.4.18+commit.9cf6e910.Emscripten.clang"
  },
  "schemaVersion": "1.0.1",
  "updatedAt": "2018-01-13T23:44:26.916Z"
}