{
  "contractName": "StandardToken",
  "abi": [
    {
      "constant": false,
      "inputs": [
        {
          "name": "_spender",
          "type": "address"
        },
        {
          "name": "_value",
          "type": "uint256"
        }
      ],
      "name": "approve",
      "outputs": [
        {
          "name": "success",
          "type": "bool"
        }
      ],
      "payable": false,
      "stateMutability": "nonpayable",
      "type": "function"
    },
    {
      "constant": true,
      "inputs": [],
      "name": "totalSupply",
      "outputs": [
        {
          "name": "",
          "type": "uint256"
        }
      ],
      "payable": false,
      "stateMutability": "view",
      "type": "function"
    },
    {
      "constant": true,
      "inputs": [
        {
          "name": "_address",
          "type": "address"
        }
      ],
      "name": "balanceOf",
      "outputs": [
        {
          "name": "balance",
          "type": "uint256"
        }
      ],
      "payable": false,
      "stateMutability": "view",
      "type": "function"
    },
    {
      "constant": false,
      "inputs": [
        {
          "name": "_to",
          "type": "address"
        },
        {
          "name": "_value",
          "type": "uint256"
        }
      ],
      "name": "transfer",
      "outputs": [
        {
          "name": "success",
          "type": "bool"
        }
      ],
      "payable": false,
      "stateMutability": "nonpayable",
      "type": "function"
    },
    {
      "constant": true,
      "inputs": [
        {
          "name": "_owner",
          "type": "address"
        },
        {
          "name": "_spender",
          "type": "address"
        }
      ],
      "name": "allowance",
      "outputs": [
        {
          "name": "remaining",
          "type": "uint256"
        }
      ],
      "payable": false,
      "stateMutability": "view",
      "type": "function"
    },
    {
      "anonymous": false,
      "inputs": [
        {
          "indexed": true,
          "name": "_from",
          "type": "address"
        },
        {
          "indexed": true,
          "name": "_to",
          "type": "address"
        },
        {
          "indexed": false,
          "name": "_value",
          "type": "uint256"
        }
      ],
      "name": "Transfer",
      "type": "event"
    },
    {
      "anonymous": false,
      "inputs": [
        {
          "indexed": true,
          "name": "_ownder",
          "type": "address"
        },
        {
          "indexed": true,
          "name": "_spender",
          "type": "address"
        },
        {
          "indexed": false,
          "name": "_value",
          "type": "uint256"
        }
      ],
      "name": "Approval",
      "type": "event"
    }
  ],
  "bytecode": "0x6060604052341561000f57600080fd5b6105618061001e6000396000f30060606040526004361061006d576000357c0100000000000000000000000000000000000000000000000000000000900463ffffffff168063095ea7b31461007257806318160ddd146100cc57806370a08231146100f5578063a9059cbb14610142578063dd62ed3e1461019c575b600080fd5b341561007d57600080fd5b6100b2600480803573ffffffffffffffffffffffffffffffffffffffff16906020019091908035906020019091905050610208565b604051808215151515815260200191505060405180910390f35b34156100d757600080fd5b6100df6102fa565b6040518082815260200191505060405180910390f35b341561010057600080fd5b61012c600480803573ffffffffffffffffffffffffffffffffffffffff16906020019091905050610300565b6040518082815260200191505060405180910390f35b341561014d57600080fd5b610182600480803573ffffffffffffffffffffffffffffffffffffffff16906020019091908035906020019091905050610349565b604051808215151515815260200191505060405180910390f35b34156101a757600080fd5b6101f2600480803573ffffffffffffffffffffffffffffffffffffffff1690602001909190803573ffffffffffffffffffffffffffffffffffffffff169060200190919050506104ae565b6040518082815260200191505060405180910390f35b600081600260003373ffffffffffffffffffffffffffffffffffffffff1673ffffffffffffffffffffffffffffffffffffffff16815260200190815260200160002060008573ffffffffffffffffffffffffffffffffffffffff1673ffffffffffffffffffffffffffffffffffffffff168152602001908152602001600020819055508273ffffffffffffffffffffffffffffffffffffffff163373ffffffffffffffffffffffffffffffffffffffff167f8c5be1e5ebec7d5bd14f71427d1e84f3dd0314c0f7b2291e5b200ac8c7c3b925846040518082815260200191505060405180910390a36001905092915050565b60005481565b6000600160008373ffffffffffffffffffffffffffffffffffffffff1673ffffffffffffffffffffffffffffffffffffffff168152602001908152602001600020549050919050565b6000808373ffffffffffffffffffffffffffffffffffffffff161415801561037957508161037633610300565b10155b8015610396575061038983610300565b8261039385610300565b01115b156104a35781600160003373ffffffffffffffffffffffffffffffffffffffff1673ffffffffffffffffffffffffffffffffffffffff1681526020019081526020016000206000828254039250508190555081600160008573ffffffffffffffffffffffffffffffffffffffff1673ffffffffffffffffffffffffffffffffffffffff168152602001908152602001600020600082825401925050819055508273ffffffffffffffffffffffffffffffffffffffff163373ffffffffffffffffffffffffffffffffffffffff167fddf252ad1be2c89b69c2b068fc378daa952ba7f163c4a11628f55a4df523b3ef846040518082815260200191505060405180910390a3600190506104a8565b600090505b92915050565b6000600260008473ffffffffffffffffffffffffffffffffffffffff1673ffffffffffffffffffffffffffffffffffffffff16815260200190815260200160002060008373ffffffffffffffffffffffffffffffffffffffff1673ffffffffffffffffffffffffffffffffffffffff168152602001908152602001600020549050929150505600a165627a7a72305820d2d2a153049e6e6ac6c4c41b4fde59d52ff27470142fa3096cebac4670f0d6080029",
  "source": "pragma solidity ^0.4.18;\n\n\n/**\n * Token Interface\n*/\n\ncontract Token {\n  uint256 public totalSupply; // Total amount of tokens available\n  function balanceOf(address _address) public constant returns (uint256 balance);  // Checks amount of tokens specific wallet holds\n  function transfer(address _to, uint256 _value) public returns (bool success); // transfer _value tokens to wallet _to\n  function transferFrom(address _from, address _to, uint256 _value) internal returns (bool success);\n  function approve(address _spender, uint256 _value) public returns (bool success);\n  function allowance(address _owner, address _spender) public constant returns (uint256 remaining);\n\n  // Events for logging\n  event Transfer(address indexed _from, address indexed _to, uint256 _value);\n  event Approval(address indexed _ownder, address indexed _spender, uint256 _value);\n}\n\n/**\n * ERC 20 token\n*/\n\ncontract StandardToken is Token {\n  mapping (address => uint256) balances;\n  mapping (address => mapping (address => uint256)) allowed;\n\n  function balanceOf(address _address) public constant returns (uint256 balance) {\n    return balances[_address];\n  }\n\n  /**\n   * Transfer tokens to another account\n   *\n   * @param _to - wallet address to send funds to\n   * @param _value - amount of tokens to send\n   */\n  function transfer(address _to, uint256 _value) public returns (bool success) {\n    // Check 1 - _to address is not null\n    // Check 2 - sender has enough tokens to send _value\n    // Check 3 - no overflow / _value is greater than 0\n    if (_to != 0x0\n    && balanceOf(msg.sender) >= _value\n    && (balanceOf(_to) + _value > balanceOf(_to))) {\n      balances[msg.sender] -= _value;\n      balances[_to] += _value;\n      Transfer(msg.sender, _to, _value);\n      return true;\n    }\n    return false;\n  }\n\n  /**\n   * Transfer tokens between different wallets\n   *\n   * @param _from - wallet address funds are coming from\n   * @param _to - wallet address to send funds to\n   * @param _value - amount of tokens to send\n   */\n\n  function transferFrom(address _from, address _to, uint256 _value) internal returns (bool success) {\n    if ((_from != 0x0 && _to != 0x0)\n    && balanceOf(_from) >= _value\n    && (balanceOf(_to) + _value > balanceOf(_to))) {\n      balances[_from] -= _value;\n      balances[_to] += _value;\n      allowed[_from][msg.sender] -= _value; // update allowance of sender given by _from\n      Transfer(_from, _to, _value);\n      return true;\n    }\n    return false;\n  }\n\n  /*\n  * Set the allowance for other address, allows _spender to send no more than the specified _value\n  *\n  * @param _spender - address authorized to spend\n  * @param _value - amount authorized to spend\n  */\n  function approve(address _spender, uint256 _value) public returns (bool success) {\n    allowed[msg.sender][_spender] = _value;\n    Approval(msg.sender, _spender, _value);\n    return true;\n  }\n\n  function allowance(address _owner, address _spender) public constant returns (uint256 remaining) {\n    return allowed[_owner][_spender];\n  }\n}",
  "sourcePath": "/Users/jamesnghiem/Dropbox/scamcoin2.0/contracts/StandardToken.sol",
  "compiler": {
    "name": "solc",
    "version": "0.4.18+commit.9cf6e910.Emscripten.clang"
  },
  "schemaVersion": "1.0.1",
  "updatedAt": "2018-01-13T23:44:26.921Z"
}